:100000000C946E020C948B020C948B020C948B0259
:100010000C948B020C948B020C948B020C948B022C
:100020000C948B020C948B020C94C7200C949B2193
:100030000C945B1B0C948B020C948B020C948B0223
:100040000C948B020C948B020C948B020C948B02FC
:100050000C948B020C94E21B0C948B020C948B027C
:100060000C948B020C948B020C948B020C948B02DC
:100070000C948B020C948B020C948B020C948B02CC
:100080000C948B020C948B020C948B020C948B02BC
:100090000C948B020C948B020C948B020C948B02AC
:1000A0000C948B020C948B020C948B022B0014008A
:1000B0001A000800150017001C0018000C001200A0
:1000C00013002F0030002A00000039000400160041
:1000D000070009000A000B000D000E000F0033009E
:1000E0003400280000000000E1001D001B00060095
:1000F0001900050011001000360037003800E50037
:10010000000052000000E000E300E20000002C00CC
:10011000215200002C000000E6000000000050000A
:1001200051004F000100010001000100007C0100AE
:1001300001000100010001000100010001004C006C
:1001400000000100010001000100010001000100A8
:100150000100010001000100010001000000000099
:100160000100010001000100010001000100010087
:100170000100010001000100000001000000010079
:10018000010001000000010001000000010000006A
:100190000100000000000100010001000100010059
:1001A0000100010001000100010001000100010047
:1001B0000100010001000100000001000100010038
:1001C0000100010001000100010001000100010027
:1001D0000100010000000000010001000100010019
:1001E0000100010001000100010001000100010007
:1001F00000000100000001000100010000000100FA
:1002000001000000010000000100000000000100EA
:1002100001000100010001000100010001000100D6
:1002200001000100010001000100010001000100C6
:1002300000000100010001000100010001000100B7
:1002400001000100010001000100010000000000A8
:100250000100010001000100010001000100010096
:100260000100010001000100000001000000010088
:100270000100010000000100010000000100000079
:10028000010000000000010001000100000000006A
:10029000000000002A2B28000000000000000000E1
:1002A0000000000000000029000000002C1E342087
:1002B000212224342627252E362D3738271E1F20AD
:1002C0002122232425263333362E37381F040506F2
:1002D0000708090A0B0C0D0E0F1011121314151636
:1002E0001718191A1B1C1D2F3130232D3504050634
:1002F0000708090A0B0C0D0E0F1011121314151616
:100300001718191A1B1C1D2F3130354C0000000026
:1003100000000000000000000000000000000000DD
:1003200000000000000000000000000000000000CD
:100330007E0F00D4FFFFFFC7000000780A034C00C7
:100340004D00340030000000080345006D007000CF
:1003500000000403090409025B00030100A0FA097C
:1003600004000001030101000921110100012240E4
:1003700000070581030800010904010002030000D1
:10038000000921110100012222000705820320003B
:100390000107050303200001090402000103000016
:1003A0000009211101000122B60007058403200085
:1003B0000112010002000000086820010001000194
:1003C0000200010660FF0961A1010962150026FF14
:1003D000009520750881020963150026FF0095200D
:1003E00075089102C005010902A10185020901A158
:1003F00000050919012908150025019508750181D5
:10040000020501093009311581257F9502750881A2
:100410000609381581257F950175088106050C0AA6
:1004200038021581257F950175088106C0C0050138
:100430000980A101850319012AB700150126B7001B
:10044000950175108100C0050C0901A101850419F1
:10045000012AA002150126A002950175108100C095
:1004600005010906A1018506050719E029E7150020
:1004700025019508750181020507190029EF15006E
:10048000250195F0750181020508190129059505D9
:1004900075019102950175039101C005010906A13D
:1004A00001050719E029E715002501950875018167
:1004B000029501750881010507190029FF1500261D
:1004C000FF009506750881000508190129059505A5
:1004D00075019102950175039101C00011241FBEA1
:1004E000CFEFDAE0DEBFCDBF11E0A0E0B1E0E4EB9A
:1004F000F8E402C005900D92A03AB107D9F722E0C6
:10050000A0EAB1E001C01D92A23BB207E1F70E9450
:10051000A7110C9406240C94000084E00895843004
:10052000B8F46430A8F44F3098F450E09FE0699F2D
:10053000400D511D1124FA019CE3899FE00DF11D2E
:100540001124EE0FFF1FE455FF4F859194910895FC
:1005500080E090E0089581E0089581E008950E9490
:10056000AD02089508950E94B2020895A5E0B0E09A
:10057000ECEBF2E00C94722349835A833091A7018B
:1005800089819A81311119C0662399F0222389F05B
:100590000E94BB08182F682F89819A810E949708B2
:1005A00069817A81812F0E941D0F2596E3E00C94CA
:1005B0008E230E94A908182FF3CF0E94BB086981DF
:1005C0007A81F1CFFC01262F4081518162817381B4
:1005D00084810E94B602089581E00895CF93DF934D
:1005E000EC0160E00E94E202BE010E94B302DF91D2
:1005F000CF910895E1E0F0E0DF0102C0AA0FBB1F38
:100600006A95E2F7BD01DF0102C0AA0FBB1F4A9540
:10061000E2F76A2B01C0EE0F2A95EAF7962F98238E
:10062000961302C08E2B0895E0958E230895242FF3
:10063000462F682F8091C0010E94FA020E94F9079C
:1006400008950E944B1008950E944F100895089538
:100650000E948D070E9427032FEF84E39CE0215026
:1006600080409040E1F700C0000008950E942803F8
:100670000E94061C08950E9428030E94171C0895DA
:100680000F931F93CF93DF938C0161E00E94E202EE
:10069000EC01B8010E949E14811106C080E0DF9138
:1006A000CF911F910F910895B801CE010E94AF0222
:1006B0008823A1F3B801CE010E947C19882371F32D
:1006C000B801CE010E94A315882341F3B801CE01E1
:1006D0000E94EE18882311F3F8018281882361F0CB
:1006E000C330FCE7DF07E9F058F4C115ECE7DE079B
:1006F000A9F0C130DC47B9F0C8010E94AB02CFCFEE
:10070000CB358CE7D807A9F0CC35ECE7DE0771F0E4
:10071000CA35DC4789F70E94B80CEECF0E94360339
:10072000BDCF0E94C00C0E943B03B8CF0E94AE0C0C
:10073000E3CF0E94BC0CE0CF0E94371B0E94C6038F
:1007400008950E94CA030E943C1B089508950E94C8
:10075000A603089581E008950895CF93DF93D82FDD
:100760000E94AA03C82F882319F08D2F0E94AC0382
:100770008C2FDF91CF9108950895CF93C82F0E94B9
:10078000A7038C2F0E94AD03CF91089580E00E94B3
:10079000BD0308950E94CA190E94BD030895CF9316
:1007A0000E94CA19C82F8091A2018C1779F0C093BA
:1007B000A2010E94C71B6093A3017093A4018093C0
:1007C000A5019093A6018C2F0E94BD03CF9108959F
:1007D000ABE0B0E0EEEEF3E00C9473234F83588768
:1007E00069877A878B8761110E94F90B1E821D82AF
:1007F00085E0FE013796DE01119601900D928A95F3
:10080000E1F78C819D81892B61F449815A816B814B
:100810007C818D819E810E94220B2B96E2E00C94BC
:100820008F2389819A8189238F3F79F3CE010196A5
:100830000E94EC028111E9CFF0CFFC01808191810F
:100840000E94E8080895662329F00E942B120E9456
:10085000FE1208950E948512FACFCF93C82F8823E5
:10086000C9F08238C9F40E94CA1981FD13C089E316
:100870000E94B10B0E941A0C2FEF87EE93E02150DB
:1008800080409040E1F700C0000089E30E94B90B6E
:100890000E941A0CCF9108958338A1F40E94CA19BE
:1008A00080FDF8CF83E50E94B10B0E941A0C2FEF58
:1008B00081EE94E0215080409040E1F700C00000BC
:1008C00083E5E4CF8438A1F40E94CA1982FDE2CF07
:1008D00087E40E94B10B0E941A0C2FEF81EE94E086
:1008E000215080409040E1F700C0000087E4CECF67
:1008F0008CEF8C0F813A90F46C2F809100019091D5
:1009000001010E945D1A882329F08C2F0E94B90BE7
:100910000E941A0C8C2F0E94B10BBACF80E28C0F70
:10092000883048F4C77081E001C0880FCA95EAF7A3
:100930000E94DC0BADCFEBE5EC0FE33040F4F0E0D0
:10094000EB5BFE4F808190E00E94FF19A3CFE8E5AA
:10095000EC0FE93150F4F0E0EE0FFF1FED5EFE4FBB
:10096000808191810E94241A95CF83E38C0F83317B
:1009700008F090CF61E08C2F0E9423048BCF882356
:1009800009F456C0823879F40E94CA1981FF50C018
:1009900089E30E94B10B0E941A0C89E30E94B90BF3
:1009A0000E941A0C0895833859F40E94CA1980FFD6
:1009B0003FC083E50E94B10B0E941A0C83E5EECF85
:1009C000843859F40E94CA1982FF32C087E40E9419
:1009D000B10B0E941A0C87E4E1CF9CEF980F913A7B
:1009E000E8F290E2980F983050F4877091E001C0DF
:1009F000990F8A95EAF7892F0E94E20BD1CF9BE5E8
:100A0000980F933028F490E080E00E94FF19089539
:100A100098E5980F993128F490E080E00E94241A1C
:100A2000089593E3980F933118F460E00E94230433
:100A300008951F93CF93DF93182FEB010E942D048D
:100A4000209739F4812F0E94BF04DF91CF911F912D
:100A500008958FE99FE00197F1F700C0000021970A
:100A6000EFCF70E060E0893311F460E570E00E9440
:100A700019050895882321F00E94DC0B0E941A0CAE
:100A80000895882321F00E94E20B0E941A0C089519
:100A9000B0E0A0E0EEE4F5E00C946C236C01D62FFE
:100AA000C72FFC011281F580F2949FE0F9220E9489
:100AB000D20BE82E8823B9F0E12E1123A1F08C2F60
:100AC000807F803421F080E28D0F8830D0F08091DB
:100AD000900282FF16C082E00E947D0C0E94D20B21
:100AE00091E0E82EE926BC2EB2948FE0B822FBE01C
:100AF000FB1508F468C0EB2DF0E0E85FFB4D0C94AB
:100B00005623E12CF0CF0C2F0F70C07F11F002950F
:100B1000007F112399F0002359F080E28D0F883077
:100B200010F0D11107C0802F0E94DC0B0E941A0C1C
:100B30008D2F41C0802F0E94EC0BF8CF8D2F0E948B
:100B4000BF04002309F43FC080E28D0F883010F00D
:100B5000D11104C0802F0E94E20B03C0802F0E949D
:100B6000F20B0E941A0C2FC00C2F0F70C07FC032E6
:100B700011F00295007FDD2381F0D13009F468C0C7
:100B8000112309F472C0FF2009F468C0F6018581C1
:100B900080FFCECF8F70858361C08091900282FDEF
:100BA00033C0112359F0002329F0802F0E94DC0B61
:100BB0000E941A0C80E00E942D0405C080E00E9473
:100BC000BF040111C7CFEB2DE850FF0B349720F481
:100BD0000E94CA190E94BD03EE2089F00E94CE0B2C
:100BE00080FD0DC0F60112820E94C80B0E940B0806
:100BF000C6010E944D070E94C80B0E941708CDB77E
:100C0000DEB7E9E00C948823112389F0F11006C0C7
:100C10000E94FC0B802B0E943A05D5CF21E0F212F6
:100C2000F7CF0E94FC0B802B0E94030CCCCFF1105D
:100C300006C00E94100C802F0E944105C4CF31E0F5
:100C4000F31609F2802F0E9441050E94100CBBCFC1
:100C5000112331F085E08F1508F4B5CF802FDBCF5D
:100C600094E09F1508F4AFCFE6CFFF2021F3D933EE
:100C700049F4FFEF27EE33E0F15020403040E1F738
:100C800000C000008D2F0E94BF049DCF8C2F869541
:100C90008695837069F0813009F095CF8D2F9C2F58
:100CA0009370111102C080E090E00E94241A8BCF53
:100CB0008D2F9C2F9370111102C080E090E00E9454
:100CC000FF1981CF612F8D2F0E9423047CCF8C2FA1
:100CD000837079F5111177CF4D2F42954695477066
:100CE000440F440F8D2F8F70042E01C0880F0A947B
:100CF000EAF72D2F2071D4FF07C02FE030E001C0AC
:100D0000220F4A95EAF72095C695C695C370822BA7
:100D1000C23049F058F4C13019F00E94E70753CFB0
:100D20000E94E10750CF0E94ED074DCF0E94DE07E1
:100D30004ACF8695112311F08C2F8170882309F4F6
:100D400042CF4D2F429546954770440F440F8D2F4B
:100D50008F70042E01C0880F0A94EAF72D2F20719E
:100D6000D4FF07C02FE030E001C0220F4A95EAF718
:100D70002095C695C695C370822BC23049F058F4B1
:100D8000C13019F00E9436081ECF0E9430081BCFD8
:100D90000E943C0818CF0E94F90715CFCF7011238D
:100DA00029F08C2F0E940B088D2F35CF8D2F0E949C
:100DB00041058C2F0E94170806CFD23F51F160F4F5
:100DC000D03FB9F0D13F81F0112309F449C0F110AF
:100DD000AFCE8C2F8F7121C0D33F11F1D43FA1F73B
:100DE0008091900282FD26C08C2F8F71112311F308
:100DF00014C0112349F084E08F1508F4E4CE8C2F41
:100E00008F710E942408DFCE95E09F1508F4DBCE99
:100E1000F6CF8C2F8F711111CDCF0E940B08D3CE3E
:100E2000112329F08C2F8F710E940208CCCE0E94D2
:100E3000FE07C9CE112349F0CF718C2F0E940B08F9
:100E400063E08C2F0E945F0CBECE81E00E947D0C7F
:100E5000E1E0EF1508F0B7CE82E00E947D0CB3CE42
:100E6000F11005CF8C2F8F71A5CF0F931F93CF93C8
:100E7000DF93EC01688179818A810E94F3088C01FB
:100E80000E9442080E94DD07B801CE010E94480579
:100E9000DF91CF911F910F910895CF93DF93EC01D4
:100EA0008B819C81892B29F08881998189238F3FAF
:100EB00051F4DF91CF910895CE010E943507CE0104
:100EC0000E94EE02F6CFCE010E9440038111F4CFC2
:100ED0000E94D20B882369F38A81882351F3809181
:100EE000900282FFE6CF82E00E947D0CE2CF90E08C
:100EF00080E00E94FF1990E080E00E94241A0E9486
:100F0000F90B0E941A0C0E941A130E94FE120895F7
:100F10000E94C10B0E94770708950E94E90B0E946E
:100F20008807089592959F70963091F058F4925FDB
:100F30009F70923058F4803F19F030F4883E30F4BE
:100F400081E008959A5FF4CF843FD1F380E0089563
:100F5000883EB0F3813FD1F7F3CFFC0183819481C8
:100F6000892B29F08081918189238F3F11F480E0C2
:100F70000895808191810E94E8080E949207089557
:100F8000A5E0B0E0E6ECF7E00C9473232596E2E0F0
:100F90000C948F23A6E0B0E0E0EDF7E00C9473230F
:100FA0002696E2E00C948F2308950E94D4070895BA
:100FB0000E94D5078093C101089508950E94D80723
:100FC00008959091C101892B0E94D80708959091AE
:100FD000C10189230E94D80708959091C1018927F2
:100FE0000E94D80708950E94D40708950E94F3072D
:100FF00008950E94F6078093C001089580E00E9442
:10100000F907089591E001C0990F8A95EAF7892FB1
:101010000E94F907089521E030E001C0220F8A956F
:10102000EAF78091C001822B0E94F907089521E020
:1010300030E001C0220F8A95EAF720958091C00127
:1010400082230E94F907089521E030E001C0220FB9
:101050008A95EAF78091C00182270E94F9070895D6
:101060009091C001892B0E94F90708959091C001C9
:1010700089230E94F90708959091C00189270E9451
:10108000F90708950895262F277091E001C0990F60
:101090002A95EAF723E0769567952A95E1F7FB0113
:1010A000EE0FFF1FE60FF71FE40FF51F50E040E0C3
:1010B000682F70E08191DF0111979B01042E02C01F
:1010C000369527950A94E2F7217021952827292340
:1010D00028272C934F5F5F4F4330510559F70895F0
:1010E000A82FA77023E0969587952A95E1F7FC0134
:1010F000EE0FFF1FE80FF91FE60FF71F50E040E06B
:1011000080E0219130E00A2E02C0369527950A949E
:10111000E2F721703327042E01C0220F0A94EAF768
:10112000822B4F5F5F4F4330510559F70895262FAB
:10113000943070F48F3060F4682F70E08FE0989FE7
:10114000600D711D112448EA51E0822F0E9443086E
:101150000895292F943068F48F3058F490E068EAAD
:1011600071E03FE0239F800D911D11240E947008C3
:10117000089580E00895CF92DF92FF920F931F931E
:10118000CF93DF936C010091C0018091C101082BC6
:10119000C7E0D0E010E0FC2EC8010C2E02C09595EF
:1011A00087950A94E2F780FD0CC02197A0F7F12CF7
:1011B0008F2DDF91CF911F910F91FF90DF90CF90F6
:1011C0000895B6018C2F0E94290F019771F3F0CF7B
:1011D000CF93DF93EC010E94BB08BE010E94290F50
:1011E000DF91CF9108951F93CF93DF93EB019091FF
:1011F000A701992339F0CB010E94E808DF91CF9134
:101200001F910895882369F0CB010E94BB08182F15
:10121000682FCE010E949708BE01812F0E94290FDE
:10122000EDCFCB010E94A908182FF6CF1F93CF93C3
:10123000DF93C091C20116E08091C3018C1304C0FA
:10124000DF91CF911F910895D0E01C9FF0011D9F69
:10125000F00D1124EC53FE4F408151816281738166
:10126000848195810E94CA072196C770E5CF40917D
:10127000F4015091F5016091F6017091F7018091B0
:10128000F8019091F9010E94CA0708951F93CF9326
:10129000DF938091F901807F09F049C08091F601C8
:1012A000882309F444C08091C201C091C3016091B8
:1012B000F4017091F501A091F701B091F801D62FDA
:1012C000D72316E0C81799F190E0109711F0DF3F8F
:1012D00019F401968770F6CF189F9001199F300D71
:1012E0001124F901EC53FE4F41814713F2CF4081A5
:1012F0004613EFCF42814111ECCF438154814A1B09
:101300005B0B483C510528F78091F9018F70806193
:101310008093F901F901E753FE4F80818F7080615E
:10132000808384EF91E00E944D070E941609DF91AF
:10133000CF911F910895A1E1B0E0E1EAF9E00C94AA
:101340006B238C0185E0F801DE011D9601900D9262
:101350008A95E1F7F801E28084EFC82E81E0D82E6B
:101360006091F7017091F8016115710509F44EC1A2
:101370009091F4012091F501892F82238F3F09F488
:1013800045C140815181A380B480F090F601F50100
:10139000E61BF70BFF2009F4EAC08091F901382F12
:1013A000307FE83CF10508F0A3C031116DC0FE2C80
:1013B000251316C0941314C0E11012C08F70806101
:1013C0008093F9010E943709C6010E944D07809160
:1013D000F901F80185838F2D6196EAE00C9487234B
:1013E000A114B10429F0842F85238F3F09F027C170
:1013F00080E0F82FF170DF2E80FF3CC08091C201A9
:101400002091C30136E0821315C04D875E878D851C
:101410009E850E94E808292F22952F702230F0F037
:10142000243018F59F70F1F0F8019581907FD1F488
:10143000D12C1EC090E0389FF001399FF00D11248F
:10144000EC53FE4F6181651306C06081641303C0D5
:101450006281E6120FC001968770D5CF9F7011F0A0
:10146000882331F3805E883018F3C8010E944D074D
:10147000FD2CB1CFEE2009F4AECF8091F90181604F
:101480008093F901F12CA7CF251306C0941304C053
:10149000F801EE2009F487C0C8010E94AD07882337
:1014A00019F1EE2009F18091F901803270F020915C
:1014B000F4013091F50138872F831986BB86AA86FF
:1014C0008C87CE0107960E944D0786E0F801A4EFB5
:1014D000B1E001900D928A95E1F70E9446090E94C1
:1014E0003709FF24F39477CFC8010E944D07F9CF45
:1014F000311113C07A2DB98AA88A6E2D89890E946C
:10150000C00784EF91E00E944D0786E0F60111923A
:101510008A95E9F70E943709B5CF25130FC09413B8
:101520000DC0E1100BC0F8018583C8010E944D0772
:1015300086E0F60111928A95E9F74DCFC8010E9425
:10154000AD07882389F2EE2079F28091F90180328B
:1015500008F4BBCF2091F4013091F5013A8329833F
:101560001B82BD82AC828E83CE010196ACCFE83C5B
:10157000F10508F03EC0FE2CEE2009F4B5CF25138E
:101580002AC0941328C08091F90180FD1BC0982FB8
:10159000907FC1F0F8018583903F31F0982F907FC4
:1015A000905F8F70892B8583C8010E944D0786E06C
:1015B000F801A4EFB1E001900D928A95E1F70E9445
:1015C000370909CF86E0F801A4EFB1E001900D9250
:1015D0008A95E1F700CFC8010E94AD07811175CF50
:1015E0008091F90181608093F901C8010E944D0743
:1015F000F2CE7A2DB98AA88A6E2D89890E94C007F9
:1016000086E0F60111928A95E9F7D9CFEE2009F428
:101610006BCFC8010E94AD07F82E882309F464CF70
:1016200086E0F801A4EFB1E001900D928A95E1F710
:1016300084EF91E00E941D040E944609C0CF81E022
:101640008E25D7CEACE0B0E0E8E2FBE00C9472234C
:101650004F83588769877A878B879C87CE01079647
:101660000E949B09882369F08A859B85892B39F024
:101670004F815885842F85238F3F09F06BC016E07A
:101680005FC086E0FE013796DE01119601900D9253
:101690008A95E1F78A859B85892B89F38F819885C7
:1016A00089238F3F61F32091C30130E0C901019686
:1016B000877099274091C2014817190671F40E945A
:1016C0008D071092C3011092C20186E0E4EFF1E0B1
:1016D000DF011D928A95E9F7D2CF96E0929FD00163
:1016E000939FB00D1124AC53BE4FFE013196019073
:1016F0000D929A95E1F78093C3010E941609BFCF1E
:10170000819FC00111248C539E4F0E949B09882306
:10171000E9F0E091C2011E9FF0011124EC53FE4F4D
:101720004081518162817381848195810E94CA07C1
:101730008091C20190E00196877099278093C20141
:101740008091C2019091C3018913DACF2C96E3E016
:101750000C948E2369857A858B859C850E94CA07A7
:101760008ECF682F80910001909101010E94DD1AB7
:101770000895682F80910001909101010E94EB1A59
:10178000089580910001909101010E94F91A089535
:1017900080911A02859585958595089580911A0204
:1017A0008770089590911A02977081E009F480E0A3
:1017B000089580913D02089590913D02892B809378
:1017C0003D020895809590913D02982390933D02AB
:1017D000089510923D02089590913C02892B8093C8
:1017E0003C020895809590913C02982390933C028E
:1017F000089510923C02089580911B020895089567
:101800000E94FF0B08959091900292FF08C0909162
:101810001B02981721F080931B020E94000C089570
:1018200080911B02882329F010921B0280E00E9405
:10183000000C0895CF93DF93E0910001F091010136
:1018400080913D028083E0910001F091010180814F
:1018500090913C02892B808390911B02992381F007
:10186000E0910001F09101018081892B80838091BA
:101870000001909101010E94491A81110E94100CEF
:10188000C0910001D091010140E250E06AEF71E0A7
:10189000CE010E94AE23892B59F080E2FE01AAEF0F
:1018A000B1E001900D928A95E1F7CE010E94D7191F
:1018B000DF91CF91089508950E945B0C0895909157
:1018C000900292FF11C098E0899F90011124622B31
:1018D00060931A020E940B0880911A0285958595E3
:1018E00085950E945C0C08950E940B080895109243
:1018F0001A0280E00E945C0C089590911A02809573
:10190000892380931A02282F277091F4282F082EFC
:10191000000C330B9217130659F09091900292FF2E
:1019200007C08595859585950E9417080E94770CBC
:1019300008959091900292FB222720F9281769F0D0
:1019400080FB92F99093900280918F029091900287
:101950000E94E20C82E00E947D0C0895809190022A
:1019600082FB882780F991E089270E94990C0895CD
:1019700081E00E94990C089580E00E94990C0895DE
:101980006FEF7FEF90E080E00E94F023089590E0F9
:1019900080E00E94CC23873E9E4F19F40E943814A9
:1019A000089580E0089582E090E00E94C4230895A5
:1019B00083E090E00E94C423089584E090E00E94B8
:1019C000CC230895BC0184E090E00E94F0230895A8
:1019D000AB01BC018FE090E00E94E4230895AB01CD
:1019E000BC0183E190E00E94E423089560E070E090
:1019F000CB010E94EF0C089560E070E0CB010E94E3
:101A0000E80C0E94F60C089567EE7EEF90E080E00F
:101A10000E94F02360E082E090E00E94D22360E028
:101A200083E090E00E94D2231092C10160E074E153
:101A300084E090E00E94F02360E086E090E00E9465
:101A4000D2236FEF87E090E00E94D22340E050E085
:101A5000BA0188E090E00E94E42360E08DE090E02D
:101A60000E94D22340E050E0BA0188E190E00E9459
:101A7000E42360E087E190E00E94D22340E050E060
:101A8000BA018CE190E00E94E42370E060E080E223
:101A900090E00E94F02340E050E0BA0188E190E03D
:101AA0000E94E42380E00E9451140E9480140E944E
:101AB000FC0C08950E94040D0895682F8EE090E0BC
:101AC0000E94D22308950E94C71B60934C0270931A
:101AD0004D0280934E0290934F02609348027093A0
:101AE000490280934A0290934B0208950895089505
:101AF0000E94770D089508950E947B0D089583E15B
:101B000090E10E94C0190E94760D0E94780D089500
:101B100081E008950E94880D0895089508950E9417
:101B20008D0D0E948E0D08950E942F100E94BC03FF
:101B300008950E94B21B0E9490140E9408110E94F6
:101B4000940D0E947C0D0895AAE0B0E0EAEAFDE061
:101B50000C9468230E941E1120E4822E22E0922E13
:101B6000640110E0F601E190F1906F01812F0E9475
:101B700052101F5F143009F449C0E816F90691F3BA
:101B80008091500281FD0E945B100E948A0D782E88
:101B900010E0812F0E9452107C01F401A190B190BD
:101BA0004F018A159B0561F1A826BF2400E0CC24D3
:101BB000C394D12CC5018C219D21892BC1F07720A4
:101BC000B1F00E831F8321E0C7018C219D21892B59
:101BD00009F420E028870E94BB1B8160782F9A8738
:101BE00089874E815F8168858A850E94E8030F5F3F
:101BF000CC0CDD1C0F30F1F6F4013297F182E0825B
:101C00001F5F143031F60E94630D22C0E816F906FA
:101C100009F0B6CF0E94BB1B8C0180913E029091CF
:101C20003F0208171907A1F08FEF89838A831B826F
:101C30000E94BB1B8160782F9D838C8349815A81D0
:101C40006B818D810E94E80310933F0200933E0256
:101C50000E943C130E94CF032A96EDE00C9484234B
:101C6000CF93DF930E942E0FEC01811520E59207A0
:101C7000D0F5811530E4930708F086C0803E9105C9
:101C800018F58D3C910508F07DC0883A910570F4F7
:101C9000853A910508F06EC08130910501F10097F9
:101CA000F1F00497E0F4D0E0C0E019C0813C910568
:101CB000D0F7C85AD0E0CC0FDD1FC85BDE4F0990CB
:101CC000D881C02DD4640BC08115904208F0A8C003
:101CD000C11581E0D80718F4C83ED10520F7CE0120
:101CE000DF91CF910895803622E5920710F5803478
:101CF00032E5930708F052C08032924508F047C0A1
:101D0000C11582E5D80708F47DC02C2F26952695AD
:101D100040E2249F900111248C2F8370C1E0D0E019
:101D200002C0CC0FDD1F8A95E2F7C22BD32BDD68F2
:101D3000D6CF803A22E5920760F4803832E59307E7
:101D400008F441C0CF71D0E0DC2FCC27C46FD06A3B
:101D5000C6CF803C42E5940708F449C0C03E82E506
:101D6000D80708F0A0CFDC2FCC27CC27DF71C06FBD
:101D7000D06AB5CFC55AD0E0C658DE4FC881D0E092
:101D8000D064ADCFD065ABCFDF70D06AA8CFCF71B4
:101D9000D0E0DC2FCC27C16FD06AA1CF282F2695A9
:101DA0002695277080E2289F900111248C2F837044
:101DB000C1E0D0E002C0CC0FDD1F8A95E2F7C22B54
:101DC000D32BDC688CCF282F26952695277040E2F0
:101DD000249F900111248370C1E0D0E002C0CC0F99
:101DE000DD1F8A95E2F7C22BD32BDA6878CF8F718B
:101DF0000E94D00FC82FD0E0DC2FCC27CC27DF717A
:101E0000D0626DCF8C2F8F710E94D00F35E0D695A8
:101E1000C7953A95E1F7CF709C2FEC01D0695FCF61
:101E20008D2F8F710E94D00F90E0982F88278827E0
:101E30009F719C012C2BE901E3CF462F743030F4C5
:101E40006F3020F4672F0E940618089590E080E01C
:101E500008950E941D0F0E94300E0895823891054A
:101E6000B9F1B0F48133910509F47DC048F48932A9
:101E7000910509F46DC08A32910509F47BC008957B
:101E80008533910509F45FC08933910509F10895FF
:101E9000833E9105D9F138F4803E910529F1823EC7
:101EA000910579F10895863E9105D9F1873E910516
:101EB00009F43EC0843E910541F52091900221FF36
:101EC00024C080918F0284FD19C087EE90E00895B0
:101ED00020918F02237009F05AC02091900223FFB5
:101EE00014C089E290E0089520918F0220FD38C04F
:101EF0003091900230FF09C024FF43C090E080E0A1
:101F0000089520918F0222FDF7CF089520918F022E
:101F100022FD3AC03091900230FD39C024FFF5CF48
:101F2000EDCF20918F0223FFF0CF24FDE7CFCDCF5F
:101F300020918F0223FD2EC03091900231FFEECF11
:101F400084EE90E0089520918F0225FFDECFC9CF67
:101F500020918F0225FD21C02091900223FFD5CF33
:101F600089E390E0D2CF20918F0226FFCECF8AE284
:101F700090E0089520918F0226FFC7CF81E390E083
:101F8000089583EE90E0089582EE90E0089580EE4B
:101F900090E0089586EE90E0089585E390E008953E
:101FA00090918F0292FF06C0282F28712830F9F4F3
:101FB000877F846093FF06C0282F28712831F1F4B1
:101FC000877E84612091900220FF06C0382F3871EF
:101FD0003830D9F4877F816021FF06C0282F28710F
:101FE0002831D1F4877E816194FD877E0895282F62
:101FF00024712430F9F68B7F8860DCCF282F247180
:10200000243101F78B7E8861DDCF382F317131307B
:1020100019F78E7F8860E0CF282F2171213121F7B9
:102020008E7E8861E1CF80E008950E94C00C089503
:102030000E941E118FE39CE90197F1F700C0000098
:102040000E941E1180E00E94521080FF04C00E9476
:1020500015100E94061C08950E94181008950E94F1
:10206000C70C811102C00E945A0D0E94D30C8093AC
:1020700050020E94DD0C9093900280938F020E9488
:102080002C100E94D80C0E94DE078091C0010E9493
:10209000F607089508950E944A10089508950E9431
:1020A0004E100895E82FF0E0EE0FFF1FE756FD4FAA
:1020B000808191810895089580EA8A95F1F70895C5
:1020C00000C008950E945C100895F894E82FE295EE
:1020D000EF70F0E031A1282F2F7081E090E001C077
:1020E000880F2A95EAF7982F9095932391A392A1B0
:1020F000892B82A378940895CF93DF9381E90E947E
:10210000651082E90E94651083E90E94651085E9E7
:102110000E946510CDE7D1E089918F3F11F00E94B8
:10212000651081E0CC38D807B9F7DF91CF910895D9
:10213000AF92BF92DF92EF92FF920F931F93CF93D4
:10214000DF938C01D62EC62FD0E0CE0184579E4F50
:102150007C01FC0120812F3F09F44DC0F894E22F4F
:10216000E295EF70F0E031A12F7081E090E001C0C6
:10217000880F2A95EAF7932F982B91A392A1809527
:10218000892382A378940E946010EDE7F1E04CE887
:1021900051E021E030E0B12CA12C61916F3FA9F119
:1021A000A62FA295AF70B0E090968C9190E06F70E2
:1021B00002C0959587956A95E2F780FD26C0C90112
:1021C000A82AB92A220F331F4E175F0731F7F701EC
:1021D00080818F3F11F00E94651061E0A114B1046D
:1021E00009F460E08D2D0E946210CC0FDD1FC00F3E
:1021F000D11FB982A882DF91CF911F910F91FF90DB
:10220000EF90DF90BF90AF90089590E080E0D8CF3E
:102210000E947C1088E0E9E9F2E0DF01982F1D922E
:102220009A95E9F7E1E9F2E0DF011D928A95E9F775
:1022300084E00E9459110E9421030895A8E0B0E0B3
:10224000E4E2F1E10C9470238E010F5F1F4F88E0F0
:10225000F80111928A95E9F7F12C6F2DC8010E94BF
:102260009810F394F4E0FF12F8CF48E050E0B80182
:1022700081E992E00E94AE2321E0009709F420E07A
:10228000892B41F088E0F801A1E9B2E001900D92BC
:102290008A95E1F744E069E972E081E992E00E9401
:1022A0005A11182F0E942403812F2896E5E00C94E0
:1022B0008C230895CF92DF92EF92FF921F93CF93DA
:1022C000DF936C017B01C42F222349F081E08093CE
:1022D00053020E94BB1B90935202809351021091B3
:1022E000530211110AC010E0812FDF91CF911F918D
:1022F000FF90EF90DF90CF900895809151029091E0
:1023000052020E94D31B059770F3D0E0CC0FDD1F63
:10231000AE01B601C7010E94AE23892B41F0AE0188
:10232000B601C7010E94BB2310925302DDCF10E01B
:10233000FBCF0E94A11D0E94990D0E94AE1D089521
:102340000E94B31D0E94A40D0E94CD1D08950E94FD
:10235000541B0E94871D0E947F0D0E9499110E94AC
:10236000A0110E948F0DFBCF80915A0280FF0DC0FB
:102370006091070170E0660F771F6038710570F596
:102380006115710569F1862F089581FF07C060917D
:10239000070184E0689FB0011124EFCF609107012D
:1023A00082FD0AC0809159028823A9F0209106017C
:1023B00060910701821710F088E0ECCF869FC00182
:1023C000112433E0880F991F3A95E1F7622F70E0EE
:1023D0000E944223D2CF68E070E0D5CF8FE7089506
:1023E00081E0089580915A0280FF0CC06091030142
:1023F00070E075956795759567956115710549F15B
:10240000862F089581FF06C06091030170E07595E5
:102410006795F3CF6091030182FD0BC09091580244
:102420009923A1F06091020180910301961738F081
:10243000682F70E06038710500F38FE70895899F79
:10244000C001112470E00E944223F4CF61E070E0EB
:10245000D7CF81E008958D3C31F40E94B41181956D
:1024600080935E0208958E3C19F40E94B411F8CF57
:102470008F3C31F40E94B411819580935D020895E0
:10248000803D19F40E94B411F8CF893D29F40E94CF
:10249000F21180935F0208958A3D21F40E94F211A7
:1024A0008195F7CF8B3D31F40E94F2118195809395
:1024B000600208958C3D19F40E94F211F8CF9FE25A
:1024C000980F983070F4815D990B21E030E001C0E5
:1024D000220F8A95EAF780915C02822B80935C023E
:1024E00008958D3D31F480915A02816080935A02A3
:1024F00008958E3D21F480915A028260F7CF8F3D7E
:10250000B9F780915A028460F1CF40915D028D3C11
:1025100059F480915E0287FF0DC010925E02411156
:102520000BC01092590208C08E3C81F480915E026B
:1025300018169CF3442381F080915F029091600211
:10254000892B09F05AC01092580208958F3C49F423
:1025500047FFF0CF10925D0280915E028111ECCFB7
:10256000E0CF803D19F41416ACF3E4CF90915F02F4
:10257000893D29F41916F4F610925F02DBCF8A3DEB
:1025800019F497FFD7CFF8CF909160028B3D29F4D3
:1025900097FFD0CF10926002CDCF8C3D19F4191661
:1025A000CCF3C8CF9FE2980F983090F4815D990BDF
:1025B00021E030E0B90102C0660F771F8A95E2F78B
:1025C000CB01809590915C02892380935C02B2CF0D
:1025D0008D3D31F480915A028E7F80935A02AACFAA
:1025E0008E3D21F480915A028D7FF7CF8F3D09F007
:1025F000A1CF80915A028B7FF0CF08950E94BB1B20
:102600009C0190915D0280915E02982B21F03093A5
:1026100057022093560290915F0280916002982B9E
:1026200021F030935502209354028BE592E00E94F2
:10263000F119089586E0EBE5F2E0DF011D928A953D
:10264000E9F7109259021092580210925A02089516
:10265000FC01828181110EC0838181110BC08481B4
:10266000811108C091E08581811101C090E0892F1E
:102670008170089581E0FCCFA6E0B0E0E2E4F3E1F0
:102680000C94722386E0EBE5F2E0DE0111960190F6
:102690000D928A95E1F710925D0210925E021092FF
:1026A0005F02109260028B819C81892B89F080915E
:1026B0005602909157020E94D31BAC01909159028F
:1026C0009923C9F1809108018417150608F440C0C8
:1026D0008D819E81892B91F08091540290915502B9
:1026E0000E94D31BAC0190915802992309F471C048
:1026F000809104018417150608F479C0BE016F5F4C
:102700007F4F8BE592E00E940B1B811105C08BE58A
:1027100092E00E94281381110E94FE1286E0FE01C1
:102720003196ABE5B2E001900D928A95E1F72696DD
:10273000E3E00C948E23209109018AE0289F900108
:1027400011242417350720F69F5F9093590202C089
:102750009F3FD1F71B81112359F00E94B4119FEFC5
:1027600011160CF491E0899F802D112480935D0255
:102770001C81112359F00E94B4119FEF11160CF423
:1027800091E0899F802D112480935E0230915D023B
:10279000332309F49DCF20915E02222309F498CFC0
:1027A00045EB3403C0011124992359F090935D0245
:1027B00045EB240390011124332339F030935E025A
:1027C00087CF81E080935D02F3CF81E080935E024A
:1027D0007FCF209105018AE0289F900111242417C2
:1027E000350708F08BCF9F5F9093580202C09F3F40
:1027F000D1F71D81112359F00E94F2119FEF11169C
:102800000CF491E0899F802D112480935F021E813A
:10281000112359F00E94F2119FEF11160CF491E070
:10282000899F802D11248093600230915F023323B1
:1028300009F464CF20916002222309F45FCF45EBB5
:102840003403C0011124992359F090935F0245EBA2
:10285000240390011124332339F0309360024ECFCA
:1028600081E080935F02F3CF81E08093600246CFE6
:1028700082E290E00E94C423833289F483E290E0F4
:102880000E94C423863059F484E290E00E94C4235D
:1028900091E0823009F090E0892F8170089580E006
:1028A000FCCFCF93C82F6FEF811163E282E290E0FB
:1028B0000E94D2236FEFC11166E083E290E00E9494
:1028C000D2236FEFC11162E084E290E00E94D22334
:1028D000CF910895089585E290E00E94C423682F67
:1028E00070E090E080E008950895CF93C62F0E9495
:1028F00074146C2F85E290E00E94D223CF9108954A
:1029000080E00E94511460E070E0CB010E947514D9
:102910000E9492170E94611881E00E94511408954C
:102920000E946A140E946B140E9474140E9438144E
:10293000811102C00E94801408950895CF93FB0175
:10294000C281CC2309F19C01225037472031310547
:1029500020F582500E947118C0E08C2FCF9108950D
:1029600081E00E940B0843E062E081E00E941703CF
:10297000F3CF81E00E94170843E062E081E00E940B
:102980001703EBCF82E0F6CF8115F7E79F0789F3B6
:1029900081309747B9F3C1E0E0CF8115E7E79E07A3
:1029A000F9F281309747C9F682E0DBCF2FEFFC01C7
:1029B000208308950E94D614089580E00895EF9230
:1029C000FF920F931F93CF93DF93EC01062F0E948A
:1029D000DD14811110C0E881E150E331B8F4F0E07A
:1029E000EC5EFB4D0C94562319828BE08A83602F9A
:1029F000CE010E947B1CCDB7DEB7E6E00C948B23A2
:102A000089818230C1F028F4813061F08FEF8883B2
:102A1000EECF833099F08430C9F71A821B821C8272
:102A20001D82E5CF0E94C71B0E945C236A837B83C3
:102A30008C839D83DCCF0E946B14F6CF7E0110E067
:102A4000812F0E945210F701928383831F5FF2E06F
:102A5000EF0EF11C1430A1F7CACF8981823031F01A
:102A60008530A1F68A810E949D14C1CF6A817B8145
:102A70008C819D810E945C230E947514B8CF4B818C
:102A80006A8189810E9454179827892798279D83F6
:102A90008C83ADCF2C813D813227232732274B8178
:102AA0006A8189810E947617A2CF0E9492179FCFD8
:102AB000602FCE010E94DA149ACF0E9412188983E7
:102AC00096CF0E9414189827892798279A8389837C
:102AD0008ECF6B8170E089819A81AE014C5F5F4F30
:102AE0009827892798270E94171881CF6B8170E05B
:102AF00089819A81AE014C5F5F4F9827892798277B
:102B00000E943C1874CF0E94611871CF0E94421736
:102B1000D6CF6B8170E089819A81AE014C5F5F4FA7
:102B20009827892798270E94BE1761CF6B8170E094
:102B300089819A81AE014C5F5F4F9827892798273A
:102B40000E94E21754CFCF93DF93EC01FB01828107
:102B5000882309F4D2C09E0130572332310508F092
:102B6000B2C00E94DD0C9093900280938F02FE0110
:102B7000E150F047E232F10520F4E95DFB4D0C94A1
:102B8000562380918F02816080938F0293C0809141
:102B900090028860809390028DC080918F02826045
:102BA000F3CF80918F028460EFCF80918F02886095
:102BB000EBCF809190028160EDCF80919002826096
:102BC000E9CF80918F028061DFCF80918F02806298
:102BD000DBCF80918F028064D7CF0E948D078091D8
:102BE0008F028068D1CF80918F028C60CDCF809191
:102BF00090028360CFCF80918F028E7FC5CF80916E
:102C00009002877FC7CF80918F028D7FBDCF80914B
:102C10008F028B7FB9CF80918F02877FB5CF809154
:102C200090028E7FB7CF809190028D7FB3CF80913D
:102C30008F028F7EA9CF80918F028F7DA5CF80914B
:102C40008F028F7BA1CF0E948D0780918F028F779B
:102C50009BCF80918F02837F97CF809190028C7F52
:102C600099CF80918F0282FB992790F921E09227DA
:102C700090FB82F990FB83F987CF80919002982F87
:102C8000909591708E7F892B90FB81F983CF9091E5
:102C90008F02892F8F7B96FF806476CF0E948D07ED
:102CA00090918F02892F97FB87F980586DCF81E033
:102CB0000E945D0D80918F02909190020E94E20C23
:102CC0000E948D0780E0DF91CF91089580E0F0CFE2
:102CD00090918F02892F8F7E94FF806155CF9091C4
:102CE0008F02892F8E7F90FF81604ECF909190024E
:102CF000892F877F93FF88604DCF81E0E4CFB0E0DC
:102D0000A0E0E5E8F6E10C946E23E82FF0E0E4574C
:102D1000FD4FD490282F26952695269530E0F90171
:102D2000E45DFC4F0491877010E0082E02C01595F9
:102D300007950A94E2F701701127F901E45EFC4F50
:102D4000E490F12C082E02C0F594E7940A94E2F77F
:102D500091E0E922FF24F901E45FFC4FC491D0E047
:102D600002C0D595C7958A95E2F7C170DD27011598
:102D7000110519F081EE0E942D04E114F10419F0FF
:102D800086EE0E942D048D2D0E943105E114F10480
:102D900019F086EE0E94BF040115110519F081EEAD
:102DA0000E94BF04CD2B19F08CE20E943105CDB7F3
:102DB000DEB7E7E00C948A23EF92FF920F931F9304
:102DC000CF93DF93EC01162F0AE08881882309F462
:102DD00054C0813009F04EC08981813099F47E0160
:102DE00022E0E20EF11C8A810E943105E701219662
:102DF000812F815050F3EFE9FFE03197F1F700C0E8
:102E00000000F7CF823041F47E0182E0E80EF11C31
:102E10008A810E942D04EACF833041F47E01E2E0F2
:102E2000EE0EF11C8A810E94BF04E0CF843011F0C5
:102E30002196DDCF2A81229690E080E0AE014F5F9F
:102E40005F4F2053330B2A30310548F0019778F259
:102E5000EFE9FFE03197F1F700C00000F7CF089FDE
:102E6000B001099F700D1124C901860F971F298198
:102E7000EA01E4CF0E947F16BACFCDB7DEB7E6E015
:102E80000C948B2384E0089550E0440F551F9EE17D
:102E9000699F400D511D112498E7899F400D511DD8
:102EA0001124CA01869608950F931F93CF93DF9341
:102EB0008430C8F46430B8F44F30A8F40E9444174A
:102EC0008C010E94C423C82FD0E0DC2FCC27C8017E
:102ED00001960E94C4239E01282BC901DF91CF9146
:102EE0001F910F91089590E080E0F8CF0F931F930A
:102EF000CF93DF93122F032F843078F4643068F47B
:102F00004F3058F40E944417EC01602F0E94D223E6
:102F1000612FCE0101960E94D223DF91CF911F91A4
:102F20000F9108950F931F93CF93DF93D0E0C0E0EC
:102F300010E019C00E948D0221E030E08C171D06C0
:102F400039F034F0402F612F8C2F0E948F029C01AA
:102F5000402F612F8C2F0E9476170F5F0F3051F793
:102F60001F5F143011F000E0E5CF2196C430D10589
:102F7000F9F6DF91CF911F910F910895EF92FF9293
:102F80000F931F93CF93DF93EC018A017C01E60E30
:102F9000F71ECE018696CE15DF0529F4CDB7DEB734
:102FA000E6E00C948B23C03E21E0D20740F40E945F
:102FB000C423F80180830F5F1F4F2196EACFF801E9
:102FC0001082F9CFB0E0A0E0E8EEF7E10C946D23B9
:102FD0007C016A018C01060F171FEC01CE01869659
:102FE000C017D10729F4CDB7DEB7E8E00C948923E8
:102FF000C03E21E0D20740F4FE01EE19FF09EC0DBE
:10300000FD1D60810E94D2232196E8CF843038F4E0
:10301000643028F44F3018F40E945417089590E05B
:1030200080E0089580E108958AEF91E00895EF929D
:10303000FF920F931F93CF93DF93EC018A017C01E2
:10304000E60EF71ECE018A5F9D4FCE15DF0529F4EF
:10305000CDB7DEB7E6E00C948B23CA3F21E0D20760
:1030600040F40E94C423F80180830F5F1F4F219614
:10307000E9CFF8011082F9CFB0E0A0E0E2E4F8E196
:103080000C946D237C016A018C01060F171FEC0163
:10309000CE018A5F9D4FC017D10729F4CDB7DEB7A7
:1030A000E8E00C948923CA3F21E0D20740F4FE01F6
:1030B000EE19FF09EC0DFD1D60810E94D2232196BF
:1030C000E7CFCF93DF93C6E0D2E060E0CE010E946D
:1030D000D2232196C11584E0D807B9F7DF91CF91AB
:1030E0000895A8E0B0E0E7E7F8E10C946B23F82E30
:1030F0008FE08F1508F46EC08FEF93E00E94C42319
:10310000811168C006E012E0F11035C0FE01319671
:103110006F0188E011928A95E9F77801FFEFEF1AC5
:10312000FF0AC8010E94C42389831A82882309F4F4
:1031300051C08130D1F4580182E0A80EB11CC70102
:103140000E94C4238A83882309F444C09FEF980F08
:103150009330F0F4780193E0E90EF11CC5010E9470
:10316000C4238B838823B1F11C8260E0C6010E94D6
:10317000DC168701D2CF011594E0190759F1C80177
:103180000E94C423811101C0FA940F5F1F4FBCCF6E
:103190007501843051F702E010E07501EFEFEE1A8F
:1031A000FE0AC5010E94C423F601E00FF11F8083CF
:1031B000882381F08C3741F4E2E0F0E0EC0FFD1F52
:1031C000E00FF11F1082D1CF0F5F1F4F5701073063
:1031D000110519F72896EAE00C948723CF93DF9323
:1031E000EB0186319C4711F50E94D90B9A819923F6
:1031F00099F08A7A91E009F490E09093610281114C
:1032000009C089E20E94B10B0E941A0C80E0DF9194
:10321000CF91089585E3F6CF80916102811104C0BA
:1032200089E20E94B90BF0CF85E3FBCF81E0EFCFBD
:103230000F931F93CF93DF93C42FD22FFC01828172
:103240008823C9F0409364020E94BB1B90936302E1
:103250008093620280E28C0F883040F4C77081E076
:1032600001C0880FCA95EAF70E943A05DF91CF9115
:103270001F910F91089510916402141332C0809130
:103280006202909163020E94D31B883C910548F52D
:10329000C0E2CD0F1D17B9F080E2810F883040F4F5
:1032A000177081E001C0880F1A95EAF70E94410566
:1032B000C83048F481E09D2F977001C0880F9A951F
:1032C000EAF70E943A05802F0E943105C83070F657
:1032D000D77081E001C0880FDA95EAF70E944105B6
:1032E000C5CF80E28C0F883008F6C77081E001C03E
:1032F000880FCA95EAF7F2CF0F93DB0188519C47FC
:1033000087309105A0F5FC01E75BFB4D0C9456233B
:1033100006E221EE41EE6AE17CE7CD010E94181938
:1033200080E00F91089507E225EE45EE6BE17CE722
:10333000F4CF06E221EE40EE68E17CE7EECF07E253
:1033400025EE44EE69E17CE7E8CF06E221EE42EEAD
:103350006CE17CE7E2CF07E225EE46EE6DE17CE72B
:10336000DCCF08E221E045EE6EE17CE7D6CF129695
:103370008C91882319F010926402D3CF81E0D1CFD1
:103380009093A1018093A001089590936A02809385
:1033900069020895E0916902F0916A02309729F07C
:1033A0000190F081E02D0995089580E00895E09165
:1033B0006902F0916A02309799F02091120122235C
:1033C00059F020918F0227FF07C0DC012C91119644
:1033D0002C93119726E02C930280F381E02D099520
:1033E0000895E0916902F0916A02309739F022E085
:1033F000DC012C930480F581E02D09950895A3E06C
:10340000B0E0E5E0FAE10C9473232091670230917B
:10341000680228173907A1F0909368028093670229
:10342000E0916902F0916A02309751F023E029831C
:103430009B838A830680F781E02DCE010196099552
:103440002396E2E00C948F23A3E0B0E0EAE2FAE1F5
:103450000C94732320916502309166022817390776
:10346000A1F09093660280936502E0916902F09169
:103470006A02309751F024E029839B838A83068077
:10348000F781E02DCE01019609952396E2E00C9498
:103490008F23FC01329680911201882321F08091C4
:1034A0008F029EE187FF96E080E0915008F4089536
:1034B00021912223D1F38F5FF8CF662301F1209170
:1034C00012012223F1F020918F0227FF1AC0462F0C
:1034D0004695469546954E3190F4677021E030E070
:1034E00002C0220F331F6A95E2F7840F911DFC0181
:1034F000828190E02823392381E0232B69F480E046
:103500000895FC01329608962191261721F0E817BC
:10351000F907D1F7F4CF81E008959C01FC013296C0
:103520009FEF80E04191461751F09F3F19F4411100
:1035300001C0982F8F5F8630A9F79F3F09F4089547
:10354000290F311D97FD3A95F90162830895FC0119
:10355000329608962191261303C0DF0111971C9221
:10356000E817F907B9F70895E62FE695E695E69589
:10357000EE3168F4E80FF92FF11D677021E030E0BB
:1035800001C0220F6A95EAF78281822B8283089517
:10359000E62FE695E695E695EE3170F4E80FF92F03
:1035A000F11D677021E030E001C0220F6A95EAF753
:1035B00020958281282322830895209112012223BD
:1035C00039F020918F0227FF03C00E94B41A08959A
:1035D0000E948D1A089520911201222339F0209122
:1035E0008F0227FF03C00E94C81A08950E94A71ADD
:1035F0000895FC01329680911201882351F0809148
:103600008F0287FF06C08EE1DF011D928A95E9F7E0
:10361000089586E0F9CF46E050E00E94AE2321E015
:10362000892B09F420E0822F089508950E94151B2C
:103630000895811106C081E080936B020E94161BE1
:10364000089582E0F9CF83E080936B020E94161BFD
:1036500008950E94191B089581E080936B020E94D7
:10366000161B08950E942C1B0895089508950E942A
:10367000361B0895089508950E94351B0895CF9331
:103680000E943A1B0E941E110E943B1BC0E08C2F1F
:103690000E945210892B31F4CF5FC430C1F780E013
:1036A000CF91089581E0FCCF85B7806885BF85B74D
:1036B000806885BF08951F921FB61F9211248F93B3
:1036C0009F93AF93BF9380916C02811113C080913F
:1036D000A1029091A202A091A302B091A4024196EE
:1036E000A11DB11D8093A1029093A202A093A302F9
:1036F000B093A402BF91AF919F918F911F901FBE75
:103700001F9018958091A902843031F10E949C038A
:1037100010926C0288E190E020E40FB6F894A8952E
:10372000809360000FBE2093600083B7817F846028
:1037300083BF83B7816083BF7894889583B78E7F7A
:1037400083BF0FB6F894A89580916000886180933C
:103750006000109260000FBE08950E948D070E94C5
:10376000A103089582E084BD93E095BD9AEF97BDD3
:1037700080936E0008952FB7F8948091A1029091E4
:10378000A202A091A302B091A4022FBF08952FB767
:10379000F8946091A1027091A2028091A30290918D
:1037A000A4022FBF08959C014FB7F8948091A10205
:1037B0009091A202A091A302B091A4024FBF821BDC
:1037C000930B089578941F921FB61F9211248F9324
:1037D0009F93AF93BF938091A1029091A202A09179
:1037E000A302B091A4020196A11DB11D8093A10274
:1037F0009093A202A093A302B093A402BF91AF91B1
:103800009F918F911F901FBE1F90189587E797E794
:10381000909301088093000888E19AE00FB6F8942D
:10382000A895809360000FBE90936000FFCF88E161
:103830009AE00FB6F894A895809360000FBE90931D
:103840006000FFCF80918D0208959B01BA01909195
:10385000A9029430E9F48F708093E9009FEF809182
:10386000E800915085FD06C085ED8A95F1F70000CE
:103870009111F5CF8091E80085FF0AC050E040E04B
:10388000C9010E946C1E8091E8008E778093E80049
:10389000089543E050E0BC0184E00E94251C089597
:1038A00046E050E0BC0184E00E94251C0895CF93BF
:1038B000DF93EC0180911201811111C048E050E0CA
:1038C000BE0181E00E94251C80E2FE01ADE6B2E06F
:1038D00001900D928A95E1F7DF91CF910895809143
:1038E0008F0287FF05C040E284E050E0BE01EACFCE
:1038F00048E081E0FACF603231F440E250E0BC01B0
:1039000082E00E94251C08958091A802811109C0BF
:103910000E944B200E94A8208091E2008460809346
:10392000E20008951092A80208950E942C1B0895A9
:103930006091A50281E0611101C080E00E94231B1B
:1039400008959091A90281E0943009F080E060919F
:10395000A5020E94291B089542E061EC81E00E94CB
:10396000C71F42E261EC84E00E94C71F42E261ECA3
:1039700082E00E94C71F42E260EC83E00E94C71F02
:103980009091A90281E0943009F080E06091A50255
:103990000E94191B08958091AB02833009F463C023
:1039A00030F48130E1F1823009F4A0C008958A300A
:1039B00009F48CC08B3009F471C0893009F052C011
:1039C0008091AA02813209F04DC08091AE0290919F
:1039D000AF02009719F0029709F044C08091E80007
:1039E000877F8093E8008091E80082FF37C0909144
:1039F000F3008091F200029731F48091F100813060
:103A000011F0863021F48091F10080938D02809135
:103A1000E8008B778093E8000E94FB1F23C0809111
:103A2000AA02813AF9F48091E800877F8093E80048
:103A30008091AE029091AF02892B61F460E28DE635
:103A400092E070E00E940A1F8091E8008B778093DB
:103A5000E800089560E090E080E0F3CF8091A90253
:103A60008111C1CF08958091AA02813AD9F780913E
:103A7000AE029091AF02892BA9F78091E800877F71
:103A80008093E8008091E80080FFFCCF80911201D4
:103A90008093F1008091E8008E77BCCF8091AA02DC
:103AA000813201F78091AE029091AF02892BD1F65D
:103AB0008091E800877F8093E8000E94FB1F80913F
:103AC000AC02809312010E948D0708958091AA0292
:103AD000813241F68091E800877F8093E8000E9460
:103AE000FB1F8091AD0280938E0208958091AA02FF
:103AF000813A09F0B7CF8091E800877F8093E80092
:103B00008091E80080FFFCCF80918E02C1CF84B706
:103B1000877F84BF0FB6F894A89580916000886174
:103B200080936000109260000FBE80E890E00FB6B6
:103B3000F89480936100909361000FBE0E94321B45
:103B400008950E944B200E94A820E2EEF0E08081C0
:103B50008460808378940E94272308958AE091E00E
:103B60000E94C51908958091A902853031F4809191
:103B7000A902853019F00E94AD1B08950E94821B96
:103B80008091A702882399F30E943F1B882379F331
:103B90000E94561E0E948D07EACFA0E2B0E0E3ED3E
:103BA000FDE10C9473238091A902843009F583E030
:103BB0008093E9008091E80082FF1AC08091E800BC
:103BC00090E085FF09C050E040E060E270E0CE0187
:103BD00001960E94BB1E91E08091E8008B77809354
:103BE000E800992329F060E2CE0101960E94DF14DB
:103BF000A096E2E00C948F230E94FF1D0895292FC8
:103C000033272330310521F168F42130310509F4DF
:103C100043C02230310509F444C090E080E030E038
:103C200020E026C02132310551F122323105A9F7B9
:103C30006330710590F7FB01EE0FFF1FED56FE4F4D
:103C40002081318160577E4FFB01808190E010C060
:103C500099278130910581F0009729F00297E9F6C4
:103C6000ECE3F3E002C0E2E5F3E0849190E09F0131
:103C7000FA01318320830895E8E4F3E0F6CF63305E
:103C8000710558F6660F771FFB01E756FE4F20813E
:103C9000318189E090E0ECCF82E190E021EB33E0EC
:103CA000E7CF8BE590E026E533E0E2CF80E189BD08
:103CB00082E189BD09B400FEFDCF8091D8008F7DDF
:103CC0008093D8008091E00082608093E000809132
:103CD000E00081FDFCCF0895AF92BF92CF92DF92BA
:103CE000FF920F931F93CF93DF936C01EB018A0137
:103CF0000E941A20F82E811123C00115110539F0F8
:103D0000F80180819181C81BD90BC80ED91EB12C36
:103D1000A12C2097A9F08091E80085FD22C0809118
:103D2000E8008E778093E80001151105A1F0F801F5
:103D300080819181A80EB91EB182A08285E0F82E03
:103D40008F2DDF91CF911F910F91FF90DF90CF903A
:103D5000BF90AF9008950E941A208823D1F2F82EC8
:103D6000EFCFF60181916F018093F1002197FFEF72
:103D7000AF1ABF0ACECFAF92BF92CF92DF92FF921F
:103D80000F931F93CF93DF936C01EB018A010E9485
:103D90001A20F82E811123C00115110539F0F80100
:103DA00080819181C81BD90BC80ED91EB12CA12CC2
:103DB0002097A9F08091E80085FD22C08091E8005D
:103DC0008B778093E80001151105A1F0F80180813F
:103DD0009181A80EB91EB182A08285E0F82E8F2DA8
:103DE000DF91CF911F910F91FF90DF90CF90BF9007
:103DF000AF9008950E941A208823D1F2F82EEFCFB9
:103E00008091F100F60181936F012197FFEFAF1AC6
:103E1000BF0ACECFFC018091B0029091B10286170B
:103E20009707A0F06115710529F49091E8009E773D
:103E30009093E80090E06115710551F4911108C06C
:103E40008091E80082FF34C080E00895BC01F2CF89
:103E50008091A9028823C1F18530C1F18091E800E9
:103E600083FD30C08091E80082FDEACF8091E800B8
:103E700080FFE1CF8091F3002091F200382F61158F
:103E8000710519F02830310558F091E028303105DE
:103E900009F090E02091E8002E772093E800CBCF46
:103EA00081918093F100615071092F5F3F4FE7CFFF
:103EB0008091A902882341F0853041F08091E8008B
:103EC00083FFBECF81E0089582E0089583E00895E6
:103ED000FC018091B0029091B10286179707A0F083
:103EE0006115710529F48091E8008E778093E800D0
:103EF00090E06115710551F4911108C08091E800BE
:103F000082FF35C080E00895BC01F2CF8091A90204
:103F10008823C9F18530C9F18091E80083FD31C063
:103F20008091E80082FDEACF8091E80080FFE1CF38
:103F30008091F3002091F200382F6115710519F07E
:103F40002830310558F091E02830310509F090E033
:103F50008091E8008E778093E800CBCF84918093A6
:103F6000F1003196615071092F5F3F4FE6CF80918C
:103F7000A902882341F0853041F08091E80083FF59
:103F8000BDCF81E0089582E0089583E00895982FE1
:103F9000973028F08F708093E90081E00895909326
:103FA000E900242F762F50E0981731F07091EC0043
:103FB0002091ED005091F00021FD02C09F5FE8CFFD
:103FC0003091EB003E7F3093EB003091ED003D7F70
:103FD0003093ED003091EB0031603093EB00709343
:103FE000EC002093ED005093F0002091EE0027FDAF
:103FF000E5CF80E008958091AA0287FF13C08091E9
:10400000E80082FF06C08091E8008B778093E8008B
:1040100004C08091A9028111F2CF08958091A90274
:104020008823D9F38091E80080FFF8CF8091E800E1
:104030008E77ECCF2091E4003091E50095E6A90160
:104040002091EC00822F817020FF06C08091E80053
:1040500080FF06C080E008952091E80022FD1AC08C
:104060008091A902882389F0853089F08091EB0046
:1040700085FD0FC02091E4003091E5004217530701
:10408000F9F29150E1F684E0089582E0089583E02A
:10409000089581E008950E94BA200E94C220E0EEB7
:1040A000F0E0808181608083E8EDF0E080818F77AF
:1040B000808319BCA7EDB0E08C918E7F8C938081BA
:1040C0008F7E80831092A80208950F931F93CF9341
:1040D000DF930E94BA200E94C220C8EDD0E0888100
:1040E0008F77888388818068888388818F7D8883A3
:1040F00019BC1092A9021092A5021092A702109268
:10410000A60200EE10E0F80180818B7F8083888119
:104110008160888342E060E080E00E94C71FE1EE9A
:10412000F0E080818E7F8083E2EEF0E0808181602C
:104130008083808188608083F80180818E7F808386
:10414000888180618883DF91CF911F910F910895BD
:10415000E8EDF0E080818F7E8083E7EDF0E0808104
:104160008160808384E082BF81E08093A8020E9406
:1041700065200895E8EDF0E080818E7F80831092C5
:10418000E20008951092DA001092E10008951F9263
:104190000F920FB60F9211242F933F934F935F937B
:1041A0006F937F938F939F93AF93BF93EF93FF93FF
:1041B0008091E10082FF0BC08091E20082FF07C086
:1041C0008091E1008B7F8093E1000E942623809103
:1041D000DA0080FF19C08091D80080FF15C080915F
:1041E000DA008E7F8093DA008091D90080FF96C03C
:1041F00080E189BD82E189BD09B400FEFDCF81E087
:104200008093A9020E94841C8091E10080FF19C064
:104210008091E20080FF15C08091E2008E7F809344
:10422000E2008091E20080618093E2008091D800FA
:1042300080628093D80019BC85E08093A9020E9417
:10424000981C8091E10084FF2BC08091E20084FFE4
:1042500027C080E189BD82E189BD89B5982F917021
:1042600080FFFBCF8091D8008F7D8093D800809114
:10427000E1008F7E8093E1008091E2008F7E809349
:10428000E2008091E20081608093E2008091A502CB
:10429000882309F449C084E08093A9020E94A11CEC
:1042A0008091E10083FF29C08091E20083FF25C057
:1042B0008091E100877F8093E10082E08093A902F2
:1042C0001092A5028091E1008E7F8093E1008091A1
:1042D000E2008E7F8093E2008091E2008061809313
:1042E000E20042E060E080E00E94C71F8091F000A1
:1042F00088608093F0000E94951CFF91EF91BF9120
:10430000AF919F918F917F916F915F914F913F916D
:104310002F910F900FBE0F901F90189519BC1092FF
:10432000A9020E94921C70CF8091E30087FD93E068
:104330009093A902B3CF1F920F920FB60F92112440
:104340002F933F934F935F936F937F938F939F939D
:10435000AF93BF93CF93DF93EF93FF93D091E90097
:10436000DF708091EC00C82FC17080FDC0E8109212
:10437000E9008091F000877F8093F00078940E949C
:10438000DF211092E9008091F00088608093F000B6
:10439000CD2BCF70C093E900FF91EF91DF91CF91CA
:1043A000BF91AF919F918F917F916F915F914F914D
:1043B0003F912F910F900FBE0F901F901895AAE27A
:1043C000B0E0E5EEF1E20C9472238AEA92E02091EB
:1043D000F100FC012193CF01F2E0823B9F07B9F786
:1043E0000E94CB1C8091E80083FF1EC18091AA022D
:1043F0009091AB029A3008F017C1E92FF0E0E05B32
:10440000FB4D0C945623803899F0823809F00CC18A
:104410008091AE028F70873008F006C18093E9006A
:104420008091EB0085FB882780F91092E90006C097
:104430008091A6029091A702911182609091E8006C
:10444000977F9093E8008093F1001092F1008091A3
:10445000E8008E77E5C0882309F4D3C0823009F0E4
:10446000E3C08091AC028111D6C08091AE028F7002
:104470002FEF280F263008F0D7C08093E900209155
:10448000EB0020FFC8C0933031F48091EB008062D4
:104490008093EB00C0C09091EB0090619093EB0093
:1044A00021E030E001C0220F8A95EAF72093EA006C
:1044B0001092EA008091EB008860EACF8111B4C0CD
:1044C0001091AC021F778091E3008078812B80935C
:1044D000E3008091E800877F8093E8000E94FB1F43
:1044E0008091E80080FFFCCF8091E300806880939A
:1044F000E30082E0111183E08093A90295C0805807
:10450000823008F091C08091AC029091AD028C3D58
:1045100023E09207A1F583E08A838AE289834FB77B
:10452000F894DE01139620E03EE051E2E32FF0E044
:1045300050935700E49120FF03C0E295EF703F5F76
:10454000EF708E2F90E0EA30C0F0C7968D939D9368
:104550002F5F243159F74FBF8091E800877F809308
:10456000E8006AE270E0CE0101960E940A1F809185
:10457000E8008B778093E80057C0C096E7CF609142
:10458000AE027091AF02AE014F5F5F4F0E94FC1D03
:10459000BC01892B09F448C09091E800977F909363
:1045A000E80089819A810E94681FE1CF8038E1F597
:1045B0008091E800877F8093E8008091A502809336
:1045C000F10045CF811130C09091AC02923060F57E
:1045D0008091E800877F8093E8009093A5020E9475
:1045E000FB1F8091A502882311F084E005C0809113
:1045F000E30087FDFACF81E08093A9020E94AC1C02
:1046000013C08091AC02813079F481E0933009F0DD
:1046100080E08093A7021092E9008091E800877FF4
:104620008093E8000E94FB1F8091E80083FF0AC08E
:104630008091E800877F8093E8008091EB008062A2
:104640008093EB00AA96E3E00C948E230895CF9319
:104650008091A9028823A1F0C091E900CF709091C8
:10466000EC00892F817090FD80E8C82B1092E90042
:104670008091E80083FD0E94DF21CF70C093E900A4
:10468000CF91089597FB072E16F4009407D077FD7D
:1046900009D00E949A2307FC05D03EF4909581959D
:1046A0009F4F0895709561957F4F0895EE0FFF1FFE
:1046B0000590F491E02D09946927962769277827BA
:1046C0008727782708952F923F924F925F926F929B
:1046D0007F928F929F92AF92BF92CF92DF92EF9292
:1046E000FF920F931F93CF93DF93CDB7DEB7CA1B13
:1046F000DB0B0FB6F894DEBF0FBECDBF09942A883E
:10470000398848885F846E847D848C849B84AA84E5
:10471000B984C884DF80EE80FD800C811B81AA8172
:10472000B981CE0FD11D0FB6F894DEBF0FBECDBF3D
:10473000ED010895AA1BBB1B51E107C0AA1FBB1FB7
:10474000A617B70710F0A61BB70B881F991F5A951D
:10475000A9F780959095BC01CD010895FB01DC017E
:1047600004C08D910190801921F441505040C8F748
:10477000881B990B0895FB01DC0102C001900D928A
:1047800041505040D8F70895F999FECF92BD81BDB0
:10479000F89A992780B50895A8E1B0E042E050E08A
:1047A0000C94F823262FF999FECF92BD81BDF89A7B
:1047B000019700B4021639F01FBA20BD0FB6F89465
:1047C000FA9AF99A0FBE08950396272F0E94D323D1
:1047D0000E94D223252F0E94D323242F0C94D3236D
:1047E0000196272F0E94D3230C94D223DC01CB0106
:1047F000FC01F999FECF06C0F2BDE1BDF89A3196F1
:1048000000B40D9241505040B8F70895F894FFCF8E
:1048100083058305B405B40546066206E305E30592
:104820006706CE06DD06DD06F41400152D153F15CE
:104830004A155515581558155815061506155D15C0
:104840006115691576158315861589159615FB155D
:104850006F160316CD15D1150716D5150B1617169D
:10486000E1156816E5151B16E9151F164716ED1517
:1048700023164E16F31529163116D9150F16DD1508
:104880001316F7152D163D1657166616C715FF1584
:10489000761699199F1988199319A519AB19B11989
:1048A00003222B2214232B2214235E227F22142383
:0448B000D622E22208
:1048B4001C02280850011E0A1401221C571C501CFB
:1048C400491C01E200E900EA00B500B600B700CDDA
:1048D400008301CC008A0192019401210223022465
:1048E400022502260227022A02B300B4006F0070D8
:1048F400009F01CB01818283E200E900EA00B50058
:10490400B600B700CD008301CC008A019201940166
:104914002102230224022502260227022A02B300CE
:10492400B4006F0070009F01CB01818283F0F1C657
:104934006766369431303735349796339192939530
:104944004022B69B04C303E50368038103A103006B
:00000001FF
